{
	"data": {
		"bytecode": {
			"linkReferences": {},
			"object": "60806040523480156200001157600080fd5b506040518060400160405280600781526020017f5a656e7961686100000000000000000000000000000000000000000000000000815250600090816200005891906200032e565b507324282bd697b33c0288ca5b48cfa81d87c702e7f8600160006101000a81548173ffffffffffffffffffffffffffffffffffffffff021916908373ffffffffffffffffffffffffffffffffffffffff16021790555062000415565b600081519050919050565b7f4e487b7100000000000000000000000000000000000000000000000000000000600052604160045260246000fd5b7f4e487b7100000000000000000000000000000000000000000000000000000000600052602260045260246000fd5b600060028204905060018216806200013657607f821691505b6020821081036200014c576200014b620000ee565b5b50919050565b60008190508160005260206000209050919050565b60006020601f8301049050919050565b600082821b905092915050565b600060088302620001b67fffffffffffffffffffffffffffffffffffffffffffffffffffffffffffffffff8262000177565b620001c2868362000177565b95508019841693508086168417925050509392505050565b6000819050919050565b6000819050919050565b60006200020f620002096200020384620001da565b620001e4565b620001da565b9050919050565b6000819050919050565b6200022b83620001ee565b620002436200023a8262000216565b84845462000184565b825550505050565b600090565b6200025a6200024b565b6200026781848462000220565b505050565b5b818110156200028f576200028360008262000250565b6001810190506200026d565b5050565b601f821115620002de57620002a88162000152565b620002b38462000167565b81016020851015620002c3578190505b620002db620002d28562000167565b8301826200026c565b50505b505050565b600082821c905092915050565b60006200030360001984600802620002e3565b1980831691505092915050565b60006200031e8383620002f0565b9150826002028217905092915050565b6200033982620000b4565b67ffffffffffffffff811115620003555762000354620000bf565b5b6200036182546200011d565b6200036e82828562000293565b600060209050601f831160018114620003a6576000841562000391578287015190505b6200039d858262000310565b8655506200040d565b601f198416620003b68662000152565b60005b82811015620003e057848901518255600182019150602085019450602081019050620003b9565b86831015620004005784890151620003fc601f891682620002f0565b8355505b6001600288020188555050505b505050505050565b610b2b80620004256000396000f3fe608060405234801561001057600080fd5b50600436106100575760003560e01c8063196f49141461005c5780634453511d1461007a57806380b7c92b146100965780638da5cb5b146100c75780639bc2c274146100e5575b600080fd5b610064610103565b6040516100719190610402565b60405180910390f35b610094600480360381019061008f91906105d5565b610110565b005b6100b060048036038101906100ab919061065d565b610259565b6040516100be929190610718565b60405180910390f35b6100cf610335565b6040516100dc9190610748565b60405180910390f35b6100ed61035b565b6040516100fa9190610763565b60405180910390f35b6000600280549050905090565b600160009054906101000a900473ffffffffffffffffffffffffffffffffffffffff1673ffffffffffffffffffffffffffffffffffffffff163373ffffffffffffffffffffffffffffffffffffffff16146101a0576040517f08c379a0000000000000000000000000000000000000000000000000000000008152600401610197906107f7565b60405180910390fd5b600260405180604001604052808473ffffffffffffffffffffffffffffffffffffffff16815260200183815250908060018154018082558091505060019003906000526020600020906002020160009091909190915060008201518160000160006101000a81548173ffffffffffffffffffffffffffffffffffffffff021916908373ffffffffffffffffffffffffffffffffffffffff16021790555060208201518160010190816102529190610a23565b5050505050565b6002818154811061026957600080fd5b90600052602060002090600202016000915090508060000160009054906101000a900473ffffffffffffffffffffffffffffffffffffffff16908060010180546102b290610846565b80601f01602080910402602001604051908101604052809291908181526020018280546102de90610846565b801561032b5780601f106103005761010080835404028352916020019161032b565b820191906000526020600020905b81548152906001019060200180831161030e57829003601f168201915b5050505050905082565b600160009054906101000a900473ffffffffffffffffffffffffffffffffffffffff1681565b6000805461036890610846565b80601f016020809104026020016040519081016040528092919081815260200182805461039490610846565b80156103e15780601f106103b6576101008083540402835291602001916103e1565b820191906000526020600020905b8154815290600101906020018083116103c457829003601f168201915b505050505081565b6000819050919050565b6103fc816103e9565b82525050565b600060208201905061041760008301846103f3565b92915050565b6000604051905090565b600080fd5b600080fd5b600073ffffffffffffffffffffffffffffffffffffffff82169050919050565b600061045c82610431565b9050919050565b61046c81610451565b811461047757600080fd5b50565b60008135905061048981610463565b92915050565b600080fd5b600080fd5b6000601f19601f8301169050919050565b7f4e487b7100000000000000000000000000000000000000000000000000000000600052604160045260246000fd5b6104e282610499565b810181811067ffffffffffffffff82111715610501576105006104aa565b5b80604052505050565b600061051461041d565b905061052082826104d9565b919050565b600067ffffffffffffffff8211156105405761053f6104aa565b5b61054982610499565b9050602081019050919050565b82818337600083830152505050565b600061057861057384610525565b61050a565b90508281526020810184848401111561059457610593610494565b5b61059f848285610556565b509392505050565b600082601f8301126105bc576105bb61048f565b5b81356105cc848260208601610565565b91505092915050565b600080604083850312156105ec576105eb610427565b5b60006105fa8582860161047a565b925050602083013567ffffffffffffffff81111561061b5761061a61042c565b5b610627858286016105a7565b9150509250929050565b61063a816103e9565b811461064557600080fd5b50565b60008135905061065781610631565b92915050565b60006020828403121561067357610672610427565b5b600061068184828501610648565b91505092915050565b61069381610451565b82525050565b600081519050919050565b600082825260208201905092915050565b60005b838110156106d35780820151818401526020810190506106b8565b60008484015250505050565b60006106ea82610699565b6106f481856106a4565b93506107048185602086016106b5565b61070d81610499565b840191505092915050565b600060408201905061072d600083018561068a565b818103602083015261073f81846106df565b90509392505050565b600060208201905061075d600083018461068a565b92915050565b6000602082019050818103600083015261077d81846106df565b905092915050565b7f4f6e6c7920746865206f776e65722063616e2061646420726566657272616c7360008201527f2e00000000000000000000000000000000000000000000000000000000000000602082015250565b60006107e16021836106a4565b91506107ec82610785565b604082019050919050565b60006020820190508181036000830152610810816107d4565b9050919050565b7f4e487b7100000000000000000000000000000000000000000000000000000000600052602260045260246000fd5b6000600282049050600182168061085e57607f821691505b60208210810361087157610870610817565b5b50919050565b60008190508160005260206000209050919050565b60006020601f8301049050919050565b600082821b905092915050565b6000600883026108d97fffffffffffffffffffffffffffffffffffffffffffffffffffffffffffffffff8261089c565b6108e3868361089c565b95508019841693508086168417925050509392505050565b6000819050919050565b600061092061091b610916846103e9565b6108fb565b6103e9565b9050919050565b6000819050919050565b61093a83610905565b61094e61094682610927565b8484546108a9565b825550505050565b600090565b610963610956565b61096e818484610931565b505050565b5b818110156109925761098760008261095b565b600181019050610974565b5050565b601f8211156109d7576109a881610877565b6109b18461088c565b810160208510156109c0578190505b6109d46109cc8561088c565b830182610973565b50505b505050565b600082821c905092915050565b60006109fa600019846008026109dc565b1980831691505092915050565b6000610a1383836109e9565b9150826002028217905092915050565b610a2c82610699565b67ffffffffffffffff811115610a4557610a446104aa565b5b610a4f8254610846565b610a5a828285610996565b600060209050601f831160018114610a8d5760008415610a7b578287015190505b610a858582610a07565b865550610aed565b601f198416610a9b86610877565b60005b82811015610ac357848901518255600182019150602085019450602081019050610a9e565b86831015610ae05784890151610adc601f8916826109e9565b8355505b6001600288020188555050505b50505050505056fea2646970667358221220217438078e73dd90bfee09618c3f3d0038125b042e071954ae757e305c30186d64736f6c63430008120033",
			"opcodes": "PUSH1 0x80 PUSH1 0x40 MSTORE CALLVALUE DUP1 ISZERO PUSH3 0x11 JUMPI PUSH1 0x0 DUP1 REVERT JUMPDEST POP PUSH1 0x40 MLOAD DUP1 PUSH1 0x40 ADD PUSH1 0x40 MSTORE DUP1 PUSH1 0x7 DUP2 MSTORE PUSH1 0x20 ADD PUSH32 0x5A656E7961686100000000000000000000000000000000000000000000000000 DUP2 MSTORE POP PUSH1 0x0 SWAP1 DUP2 PUSH3 0x58 SWAP2 SWAP1 PUSH3 0x32E JUMP JUMPDEST POP PUSH20 0x24282BD697B33C0288CA5B48CFA81D87C702E7F8 PUSH1 0x1 PUSH1 0x0 PUSH2 0x100 EXP DUP2 SLOAD DUP2 PUSH20 0xFFFFFFFFFFFFFFFFFFFFFFFFFFFFFFFFFFFFFFFF MUL NOT AND SWAP1 DUP4 PUSH20 0xFFFFFFFFFFFFFFFFFFFFFFFFFFFFFFFFFFFFFFFF AND MUL OR SWAP1 SSTORE POP PUSH3 0x415 JUMP JUMPDEST PUSH1 0x0 DUP2 MLOAD SWAP1 POP SWAP2 SWAP1 POP JUMP JUMPDEST PUSH32 0x4E487B7100000000000000000000000000000000000000000000000000000000 PUSH1 0x0 MSTORE PUSH1 0x41 PUSH1 0x4 MSTORE PUSH1 0x24 PUSH1 0x0 REVERT JUMPDEST PUSH32 0x4E487B7100000000000000000000000000000000000000000000000000000000 PUSH1 0x0 MSTORE PUSH1 0x22 PUSH1 0x4 MSTORE PUSH1 0x24 PUSH1 0x0 REVERT JUMPDEST PUSH1 0x0 PUSH1 0x2 DUP3 DIV SWAP1 POP PUSH1 0x1 DUP3 AND DUP1 PUSH3 0x136 JUMPI PUSH1 0x7F DUP3 AND SWAP2 POP JUMPDEST PUSH1 0x20 DUP3 LT DUP2 SUB PUSH3 0x14C JUMPI PUSH3 0x14B PUSH3 0xEE JUMP JUMPDEST JUMPDEST POP SWAP2 SWAP1 POP JUMP JUMPDEST PUSH1 0x0 DUP2 SWAP1 POP DUP2 PUSH1 0x0 MSTORE PUSH1 0x20 PUSH1 0x0 KECCAK256 SWAP1 POP SWAP2 SWAP1 POP JUMP JUMPDEST PUSH1 0x0 PUSH1 0x20 PUSH1 0x1F DUP4 ADD DIV SWAP1 POP SWAP2 SWAP1 POP JUMP JUMPDEST PUSH1 0x0 DUP3 DUP3 SHL SWAP1 POP SWAP3 SWAP2 POP POP JUMP JUMPDEST PUSH1 0x0 PUSH1 0x8 DUP4 MUL PUSH3 0x1B6 PUSH32 0xFFFFFFFFFFFFFFFFFFFFFFFFFFFFFFFFFFFFFFFFFFFFFFFFFFFFFFFFFFFFFFFF DUP3 PUSH3 0x177 JUMP JUMPDEST PUSH3 0x1C2 DUP7 DUP4 PUSH3 0x177 JUMP JUMPDEST SWAP6 POP DUP1 NOT DUP5 AND SWAP4 POP DUP1 DUP7 AND DUP5 OR SWAP3 POP POP POP SWAP4 SWAP3 POP POP POP JUMP JUMPDEST PUSH1 0x0 DUP2 SWAP1 POP SWAP2 SWAP1 POP JUMP JUMPDEST PUSH1 0x0 DUP2 SWAP1 POP SWAP2 SWAP1 POP JUMP JUMPDEST PUSH1 0x0 PUSH3 0x20F PUSH3 0x209 PUSH3 0x203 DUP5 PUSH3 0x1DA JUMP JUMPDEST PUSH3 0x1E4 JUMP JUMPDEST PUSH3 0x1DA JUMP JUMPDEST SWAP1 POP SWAP2 SWAP1 POP JUMP JUMPDEST PUSH1 0x0 DUP2 SWAP1 POP SWAP2 SWAP1 POP JUMP JUMPDEST PUSH3 0x22B DUP4 PUSH3 0x1EE JUMP JUMPDEST PUSH3 0x243 PUSH3 0x23A DUP3 PUSH3 0x216 JUMP JUMPDEST DUP5 DUP5 SLOAD PUSH3 0x184 JUMP JUMPDEST DUP3 SSTORE POP POP POP POP JUMP JUMPDEST PUSH1 0x0 SWAP1 JUMP JUMPDEST PUSH3 0x25A PUSH3 0x24B JUMP JUMPDEST PUSH3 0x267 DUP2 DUP5 DUP5 PUSH3 0x220 JUMP JUMPDEST POP POP POP JUMP JUMPDEST JUMPDEST DUP2 DUP2 LT ISZERO PUSH3 0x28F JUMPI PUSH3 0x283 PUSH1 0x0 DUP3 PUSH3 0x250 JUMP JUMPDEST PUSH1 0x1 DUP2 ADD SWAP1 POP PUSH3 0x26D JUMP JUMPDEST POP POP JUMP JUMPDEST PUSH1 0x1F DUP3 GT ISZERO PUSH3 0x2DE JUMPI PUSH3 0x2A8 DUP2 PUSH3 0x152 JUMP JUMPDEST PUSH3 0x2B3 DUP5 PUSH3 0x167 JUMP JUMPDEST DUP2 ADD PUSH1 0x20 DUP6 LT ISZERO PUSH3 0x2C3 JUMPI DUP2 SWAP1 POP JUMPDEST PUSH3 0x2DB PUSH3 0x2D2 DUP6 PUSH3 0x167 JUMP JUMPDEST DUP4 ADD DUP3 PUSH3 0x26C JUMP JUMPDEST POP POP JUMPDEST POP POP POP JUMP JUMPDEST PUSH1 0x0 DUP3 DUP3 SHR SWAP1 POP SWAP3 SWAP2 POP POP JUMP JUMPDEST PUSH1 0x0 PUSH3 0x303 PUSH1 0x0 NOT DUP5 PUSH1 0x8 MUL PUSH3 0x2E3 JUMP JUMPDEST NOT DUP1 DUP4 AND SWAP2 POP POP SWAP3 SWAP2 POP POP JUMP JUMPDEST PUSH1 0x0 PUSH3 0x31E DUP4 DUP4 PUSH3 0x2F0 JUMP JUMPDEST SWAP2 POP DUP3 PUSH1 0x2 MUL DUP3 OR SWAP1 POP SWAP3 SWAP2 POP POP JUMP JUMPDEST PUSH3 0x339 DUP3 PUSH3 0xB4 JUMP JUMPDEST PUSH8 0xFFFFFFFFFFFFFFFF DUP2 GT ISZERO PUSH3 0x355 JUMPI PUSH3 0x354 PUSH3 0xBF JUMP JUMPDEST JUMPDEST PUSH3 0x361 DUP3 SLOAD PUSH3 0x11D JUMP JUMPDEST PUSH3 0x36E DUP3 DUP3 DUP6 PUSH3 0x293 JUMP JUMPDEST PUSH1 0x0 PUSH1 0x20 SWAP1 POP PUSH1 0x1F DUP4 GT PUSH1 0x1 DUP2 EQ PUSH3 0x3A6 JUMPI PUSH1 0x0 DUP5 ISZERO PUSH3 0x391 JUMPI DUP3 DUP8 ADD MLOAD SWAP1 POP JUMPDEST PUSH3 0x39D DUP6 DUP3 PUSH3 0x310 JUMP JUMPDEST DUP7 SSTORE POP PUSH3 0x40D JUMP JUMPDEST PUSH1 0x1F NOT DUP5 AND PUSH3 0x3B6 DUP7 PUSH3 0x152 JUMP JUMPDEST PUSH1 0x0 JUMPDEST DUP3 DUP2 LT ISZERO PUSH3 0x3E0 JUMPI DUP5 DUP10 ADD MLOAD DUP3 SSTORE PUSH1 0x1 DUP3 ADD SWAP2 POP PUSH1 0x20 DUP6 ADD SWAP5 POP PUSH1 0x20 DUP2 ADD SWAP1 POP PUSH3 0x3B9 JUMP JUMPDEST DUP7 DUP4 LT ISZERO PUSH3 0x400 JUMPI DUP5 DUP10 ADD MLOAD PUSH3 0x3FC PUSH1 0x1F DUP10 AND DUP3 PUSH3 0x2F0 JUMP JUMPDEST DUP4 SSTORE POP JUMPDEST PUSH1 0x1 PUSH1 0x2 DUP9 MUL ADD DUP9 SSTORE POP POP POP JUMPDEST POP POP POP POP POP POP JUMP JUMPDEST PUSH2 0xB2B DUP1 PUSH3 0x425 PUSH1 0x0 CODECOPY PUSH1 0x0 RETURN INVALID PUSH1 0x80 PUSH1 0x40 MSTORE CALLVALUE DUP1 ISZERO PUSH2 0x10 JUMPI PUSH1 0x0 DUP1 REVERT JUMPDEST POP PUSH1 0x4 CALLDATASIZE LT PUSH2 0x57 JUMPI PUSH1 0x0 CALLDATALOAD PUSH1 0xE0 SHR DUP1 PUSH4 0x196F4914 EQ PUSH2 0x5C JUMPI DUP1 PUSH4 0x4453511D EQ PUSH2 0x7A JUMPI DUP1 PUSH4 0x80B7C92B EQ PUSH2 0x96 JUMPI DUP1 PUSH4 0x8DA5CB5B EQ PUSH2 0xC7 JUMPI DUP1 PUSH4 0x9BC2C274 EQ PUSH2 0xE5 JUMPI JUMPDEST PUSH1 0x0 DUP1 REVERT JUMPDEST PUSH2 0x64 PUSH2 0x103 JUMP JUMPDEST PUSH1 0x40 MLOAD PUSH2 0x71 SWAP2 SWAP1 PUSH2 0x402 JUMP JUMPDEST PUSH1 0x40 MLOAD DUP1 SWAP2 SUB SWAP1 RETURN JUMPDEST PUSH2 0x94 PUSH1 0x4 DUP1 CALLDATASIZE SUB DUP2 ADD SWAP1 PUSH2 0x8F SWAP2 SWAP1 PUSH2 0x5D5 JUMP JUMPDEST PUSH2 0x110 JUMP JUMPDEST STOP JUMPDEST PUSH2 0xB0 PUSH1 0x4 DUP1 CALLDATASIZE SUB DUP2 ADD SWAP1 PUSH2 0xAB SWAP2 SWAP1 PUSH2 0x65D JUMP JUMPDEST PUSH2 0x259 JUMP JUMPDEST PUSH1 0x40 MLOAD PUSH2 0xBE SWAP3 SWAP2 SWAP1 PUSH2 0x718 JUMP JUMPDEST PUSH1 0x40 MLOAD DUP1 SWAP2 SUB SWAP1 RETURN JUMPDEST PUSH2 0xCF PUSH2 0x335 JUMP JUMPDEST PUSH1 0x40 MLOAD PUSH2 0xDC SWAP2 SWAP1 PUSH2 0x748 JUMP JUMPDEST PUSH1 0x40 MLOAD DUP1 SWAP2 SUB SWAP1 RETURN JUMPDEST PUSH2 0xED PUSH2 0x35B JUMP JUMPDEST PUSH1 0x40 MLOAD PUSH2 0xFA SWAP2 SWAP1 PUSH2 0x763 JUMP JUMPDEST PUSH1 0x40 MLOAD DUP1 SWAP2 SUB SWAP1 RETURN JUMPDEST PUSH1 0x0 PUSH1 0x2 DUP1 SLOAD SWAP1 POP SWAP1 POP SWAP1 JUMP JUMPDEST PUSH1 0x1 PUSH1 0x0 SWAP1 SLOAD SWAP1 PUSH2 0x100 EXP SWAP1 DIV PUSH20 0xFFFFFFFFFFFFFFFFFFFFFFFFFFFFFFFFFFFFFFFF AND PUSH20 0xFFFFFFFFFFFFFFFFFFFFFFFFFFFFFFFFFFFFFFFF AND CALLER PUSH20 0xFFFFFFFFFFFFFFFFFFFFFFFFFFFFFFFFFFFFFFFF AND EQ PUSH2 0x1A0 JUMPI PUSH1 0x40 MLOAD PUSH32 0x8C379A000000000000000000000000000000000000000000000000000000000 DUP2 MSTORE PUSH1 0x4 ADD PUSH2 0x197 SWAP1 PUSH2 0x7F7 JUMP JUMPDEST PUSH1 0x40 MLOAD DUP1 SWAP2 SUB SWAP1 REVERT JUMPDEST PUSH1 0x2 PUSH1 0x40 MLOAD DUP1 PUSH1 0x40 ADD PUSH1 0x40 MSTORE DUP1 DUP5 PUSH20 0xFFFFFFFFFFFFFFFFFFFFFFFFFFFFFFFFFFFFFFFF AND DUP2 MSTORE PUSH1 0x20 ADD DUP4 DUP2 MSTORE POP SWAP1 DUP1 PUSH1 0x1 DUP2 SLOAD ADD DUP1 DUP3 SSTORE DUP1 SWAP2 POP POP PUSH1 0x1 SWAP1 SUB SWAP1 PUSH1 0x0 MSTORE PUSH1 0x20 PUSH1 0x0 KECCAK256 SWAP1 PUSH1 0x2 MUL ADD PUSH1 0x0 SWAP1 SWAP2 SWAP1 SWAP2 SWAP1 SWAP2 POP PUSH1 0x0 DUP3 ADD MLOAD DUP2 PUSH1 0x0 ADD PUSH1 0x0 PUSH2 0x100 EXP DUP2 SLOAD DUP2 PUSH20 0xFFFFFFFFFFFFFFFFFFFFFFFFFFFFFFFFFFFFFFFF MUL NOT AND SWAP1 DUP4 PUSH20 0xFFFFFFFFFFFFFFFFFFFFFFFFFFFFFFFFFFFFFFFF AND MUL OR SWAP1 SSTORE POP PUSH1 0x20 DUP3 ADD MLOAD DUP2 PUSH1 0x1 ADD SWAP1 DUP2 PUSH2 0x252 SWAP2 SWAP1 PUSH2 0xA23 JUMP JUMPDEST POP POP POP POP POP JUMP JUMPDEST PUSH1 0x2 DUP2 DUP2 SLOAD DUP2 LT PUSH2 0x269 JUMPI PUSH1 0x0 DUP1 REVERT JUMPDEST SWAP1 PUSH1 0x0 MSTORE PUSH1 0x20 PUSH1 0x0 KECCAK256 SWAP1 PUSH1 0x2 MUL ADD PUSH1 0x0 SWAP2 POP SWAP1 POP DUP1 PUSH1 0x0 ADD PUSH1 0x0 SWAP1 SLOAD SWAP1 PUSH2 0x100 EXP SWAP1 DIV PUSH20 0xFFFFFFFFFFFFFFFFFFFFFFFFFFFFFFFFFFFFFFFF AND SWAP1 DUP1 PUSH1 0x1 ADD DUP1 SLOAD PUSH2 0x2B2 SWAP1 PUSH2 0x846 JUMP JUMPDEST DUP1 PUSH1 0x1F ADD PUSH1 0x20 DUP1 SWAP2 DIV MUL PUSH1 0x20 ADD PUSH1 0x40 MLOAD SWAP1 DUP2 ADD PUSH1 0x40 MSTORE DUP1 SWAP3 SWAP2 SWAP1 DUP2 DUP2 MSTORE PUSH1 0x20 ADD DUP3 DUP1 SLOAD PUSH2 0x2DE SWAP1 PUSH2 0x846 JUMP JUMPDEST DUP1 ISZERO PUSH2 0x32B JUMPI DUP1 PUSH1 0x1F LT PUSH2 0x300 JUMPI PUSH2 0x100 DUP1 DUP4 SLOAD DIV MUL DUP4 MSTORE SWAP2 PUSH1 0x20 ADD SWAP2 PUSH2 0x32B JUMP JUMPDEST DUP3 ADD SWAP2 SWAP1 PUSH1 0x0 MSTORE PUSH1 0x20 PUSH1 0x0 KECCAK256 SWAP1 JUMPDEST DUP2 SLOAD DUP2 MSTORE SWAP1 PUSH1 0x1 ADD SWAP1 PUSH1 0x20 ADD DUP1 DUP4 GT PUSH2 0x30E JUMPI DUP3 SWAP1 SUB PUSH1 0x1F AND DUP3 ADD SWAP2 JUMPDEST POP POP POP POP POP SWAP1 POP DUP3 JUMP JUMPDEST PUSH1 0x1 PUSH1 0x0 SWAP1 SLOAD SWAP1 PUSH2 0x100 EXP SWAP1 DIV PUSH20 0xFFFFFFFFFFFFFFFFFFFFFFFFFFFFFFFFFFFFFFFF AND DUP2 JUMP JUMPDEST PUSH1 0x0 DUP1 SLOAD PUSH2 0x368 SWAP1 PUSH2 0x846 JUMP JUMPDEST DUP1 PUSH1 0x1F ADD PUSH1 0x20 DUP1 SWAP2 DIV MUL PUSH1 0x20 ADD PUSH1 0x40 MLOAD SWAP1 DUP2 ADD PUSH1 0x40 MSTORE DUP1 SWAP3 SWAP2 SWAP1 DUP2 DUP2 MSTORE PUSH1 0x20 ADD DUP3 DUP1 SLOAD PUSH2 0x394 SWAP1 PUSH2 0x846 JUMP JUMPDEST DUP1 ISZERO PUSH2 0x3E1 JUMPI DUP1 PUSH1 0x1F LT PUSH2 0x3B6 JUMPI PUSH2 0x100 DUP1 DUP4 SLOAD DIV MUL DUP4 MSTORE SWAP2 PUSH1 0x20 ADD SWAP2 PUSH2 0x3E1 JUMP JUMPDEST DUP3 ADD SWAP2 SWAP1 PUSH1 0x0 MSTORE PUSH1 0x20 PUSH1 0x0 KECCAK256 SWAP1 JUMPDEST DUP2 SLOAD DUP2 MSTORE SWAP1 PUSH1 0x1 ADD SWAP1 PUSH1 0x20 ADD DUP1 DUP4 GT PUSH2 0x3C4 JUMPI DUP3 SWAP1 SUB PUSH1 0x1F AND DUP3 ADD SWAP2 JUMPDEST POP POP POP POP POP DUP2 JUMP JUMPDEST PUSH1 0x0 DUP2 SWAP1 POP SWAP2 SWAP1 POP JUMP JUMPDEST PUSH2 0x3FC DUP2 PUSH2 0x3E9 JUMP JUMPDEST DUP3 MSTORE POP POP JUMP JUMPDEST PUSH1 0x0 PUSH1 0x20 DUP3 ADD SWAP1 POP PUSH2 0x417 PUSH1 0x0 DUP4 ADD DUP5 PUSH2 0x3F3 JUMP JUMPDEST SWAP3 SWAP2 POP POP JUMP JUMPDEST PUSH1 0x0 PUSH1 0x40 MLOAD SWAP1 POP SWAP1 JUMP JUMPDEST PUSH1 0x0 DUP1 REVERT JUMPDEST PUSH1 0x0 DUP1 REVERT JUMPDEST PUSH1 0x0 PUSH20 0xFFFFFFFFFFFFFFFFFFFFFFFFFFFFFFFFFFFFFFFF DUP3 AND SWAP1 POP SWAP2 SWAP1 POP JUMP JUMPDEST PUSH1 0x0 PUSH2 0x45C DUP3 PUSH2 0x431 JUMP JUMPDEST SWAP1 POP SWAP2 SWAP1 POP JUMP JUMPDEST PUSH2 0x46C DUP2 PUSH2 0x451 JUMP JUMPDEST DUP2 EQ PUSH2 0x477 JUMPI PUSH1 0x0 DUP1 REVERT JUMPDEST POP JUMP JUMPDEST PUSH1 0x0 DUP2 CALLDATALOAD SWAP1 POP PUSH2 0x489 DUP2 PUSH2 0x463 JUMP JUMPDEST SWAP3 SWAP2 POP POP JUMP JUMPDEST PUSH1 0x0 DUP1 REVERT JUMPDEST PUSH1 0x0 DUP1 REVERT JUMPDEST PUSH1 0x0 PUSH1 0x1F NOT PUSH1 0x1F DUP4 ADD AND SWAP1 POP SWAP2 SWAP1 POP JUMP JUMPDEST PUSH32 0x4E487B7100000000000000000000000000000000000000000000000000000000 PUSH1 0x0 MSTORE PUSH1 0x41 PUSH1 0x4 MSTORE PUSH1 0x24 PUSH1 0x0 REVERT JUMPDEST PUSH2 0x4E2 DUP3 PUSH2 0x499 JUMP JUMPDEST DUP2 ADD DUP2 DUP2 LT PUSH8 0xFFFFFFFFFFFFFFFF DUP3 GT OR ISZERO PUSH2 0x501 JUMPI PUSH2 0x500 PUSH2 0x4AA JUMP JUMPDEST JUMPDEST DUP1 PUSH1 0x40 MSTORE POP POP POP JUMP JUMPDEST PUSH1 0x0 PUSH2 0x514 PUSH2 0x41D JUMP JUMPDEST SWAP1 POP PUSH2 0x520 DUP3 DUP3 PUSH2 0x4D9 JUMP JUMPDEST SWAP2 SWAP1 POP JUMP JUMPDEST PUSH1 0x0 PUSH8 0xFFFFFFFFFFFFFFFF DUP3 GT ISZERO PUSH2 0x540 JUMPI PUSH2 0x53F PUSH2 0x4AA JUMP JUMPDEST JUMPDEST PUSH2 0x549 DUP3 PUSH2 0x499 JUMP JUMPDEST SWAP1 POP PUSH1 0x20 DUP2 ADD SWAP1 POP SWAP2 SWAP1 POP JUMP JUMPDEST DUP3 DUP2 DUP4 CALLDATACOPY PUSH1 0x0 DUP4 DUP4 ADD MSTORE POP POP POP JUMP JUMPDEST PUSH1 0x0 PUSH2 0x578 PUSH2 0x573 DUP5 PUSH2 0x525 JUMP JUMPDEST PUSH2 0x50A JUMP JUMPDEST SWAP1 POP DUP3 DUP2 MSTORE PUSH1 0x20 DUP2 ADD DUP5 DUP5 DUP5 ADD GT ISZERO PUSH2 0x594 JUMPI PUSH2 0x593 PUSH2 0x494 JUMP JUMPDEST JUMPDEST PUSH2 0x59F DUP5 DUP3 DUP6 PUSH2 0x556 JUMP JUMPDEST POP SWAP4 SWAP3 POP POP POP JUMP JUMPDEST PUSH1 0x0 DUP3 PUSH1 0x1F DUP4 ADD SLT PUSH2 0x5BC JUMPI PUSH2 0x5BB PUSH2 0x48F JUMP JUMPDEST JUMPDEST DUP2 CALLDATALOAD PUSH2 0x5CC DUP5 DUP3 PUSH1 0x20 DUP7 ADD PUSH2 0x565 JUMP JUMPDEST SWAP2 POP POP SWAP3 SWAP2 POP POP JUMP JUMPDEST PUSH1 0x0 DUP1 PUSH1 0x40 DUP4 DUP6 SUB SLT ISZERO PUSH2 0x5EC JUMPI PUSH2 0x5EB PUSH2 0x427 JUMP JUMPDEST JUMPDEST PUSH1 0x0 PUSH2 0x5FA DUP6 DUP3 DUP7 ADD PUSH2 0x47A JUMP JUMPDEST SWAP3 POP POP PUSH1 0x20 DUP4 ADD CALLDATALOAD PUSH8 0xFFFFFFFFFFFFFFFF DUP2 GT ISZERO PUSH2 0x61B JUMPI PUSH2 0x61A PUSH2 0x42C JUMP JUMPDEST JUMPDEST PUSH2 0x627 DUP6 DUP3 DUP7 ADD PUSH2 0x5A7 JUMP JUMPDEST SWAP2 POP POP SWAP3 POP SWAP3 SWAP1 POP JUMP JUMPDEST PUSH2 0x63A DUP2 PUSH2 0x3E9 JUMP JUMPDEST DUP2 EQ PUSH2 0x645 JUMPI PUSH1 0x0 DUP1 REVERT JUMPDEST POP JUMP JUMPDEST PUSH1 0x0 DUP2 CALLDATALOAD SWAP1 POP PUSH2 0x657 DUP2 PUSH2 0x631 JUMP JUMPDEST SWAP3 SWAP2 POP POP JUMP JUMPDEST PUSH1 0x0 PUSH1 0x20 DUP3 DUP5 SUB SLT ISZERO PUSH2 0x673 JUMPI PUSH2 0x672 PUSH2 0x427 JUMP JUMPDEST JUMPDEST PUSH1 0x0 PUSH2 0x681 DUP5 DUP3 DUP6 ADD PUSH2 0x648 JUMP JUMPDEST SWAP2 POP POP SWAP3 SWAP2 POP POP JUMP JUMPDEST PUSH2 0x693 DUP2 PUSH2 0x451 JUMP JUMPDEST DUP3 MSTORE POP POP JUMP JUMPDEST PUSH1 0x0 DUP2 MLOAD SWAP1 POP SWAP2 SWAP1 POP JUMP JUMPDEST PUSH1 0x0 DUP3 DUP3 MSTORE PUSH1 0x20 DUP3 ADD SWAP1 POP SWAP3 SWAP2 POP POP JUMP JUMPDEST PUSH1 0x0 JUMPDEST DUP4 DUP2 LT ISZERO PUSH2 0x6D3 JUMPI DUP1 DUP3 ADD MLOAD DUP2 DUP5 ADD MSTORE PUSH1 0x20 DUP2 ADD SWAP1 POP PUSH2 0x6B8 JUMP JUMPDEST PUSH1 0x0 DUP5 DUP5 ADD MSTORE POP POP POP POP JUMP JUMPDEST PUSH1 0x0 PUSH2 0x6EA DUP3 PUSH2 0x699 JUMP JUMPDEST PUSH2 0x6F4 DUP2 DUP6 PUSH2 0x6A4 JUMP JUMPDEST SWAP4 POP PUSH2 0x704 DUP2 DUP6 PUSH1 0x20 DUP7 ADD PUSH2 0x6B5 JUMP JUMPDEST PUSH2 0x70D DUP2 PUSH2 0x499 JUMP JUMPDEST DUP5 ADD SWAP2 POP POP SWAP3 SWAP2 POP POP JUMP JUMPDEST PUSH1 0x0 PUSH1 0x40 DUP3 ADD SWAP1 POP PUSH2 0x72D PUSH1 0x0 DUP4 ADD DUP6 PUSH2 0x68A JUMP JUMPDEST DUP2 DUP2 SUB PUSH1 0x20 DUP4 ADD MSTORE PUSH2 0x73F DUP2 DUP5 PUSH2 0x6DF JUMP JUMPDEST SWAP1 POP SWAP4 SWAP3 POP POP POP JUMP JUMPDEST PUSH1 0x0 PUSH1 0x20 DUP3 ADD SWAP1 POP PUSH2 0x75D PUSH1 0x0 DUP4 ADD DUP5 PUSH2 0x68A JUMP JUMPDEST SWAP3 SWAP2 POP POP JUMP JUMPDEST PUSH1 0x0 PUSH1 0x20 DUP3 ADD SWAP1 POP DUP2 DUP2 SUB PUSH1 0x0 DUP4 ADD MSTORE PUSH2 0x77D DUP2 DUP5 PUSH2 0x6DF JUMP JUMPDEST SWAP1 POP SWAP3 SWAP2 POP POP JUMP JUMPDEST PUSH32 0x4F6E6C7920746865206F776E65722063616E2061646420726566657272616C73 PUSH1 0x0 DUP3 ADD MSTORE PUSH32 0x2E00000000000000000000000000000000000000000000000000000000000000 PUSH1 0x20 DUP3 ADD MSTORE POP JUMP JUMPDEST PUSH1 0x0 PUSH2 0x7E1 PUSH1 0x21 DUP4 PUSH2 0x6A4 JUMP JUMPDEST SWAP2 POP PUSH2 0x7EC DUP3 PUSH2 0x785 JUMP JUMPDEST PUSH1 0x40 DUP3 ADD SWAP1 POP SWAP2 SWAP1 POP JUMP JUMPDEST PUSH1 0x0 PUSH1 0x20 DUP3 ADD SWAP1 POP DUP2 DUP2 SUB PUSH1 0x0 DUP4 ADD MSTORE PUSH2 0x810 DUP2 PUSH2 0x7D4 JUMP JUMPDEST SWAP1 POP SWAP2 SWAP1 POP JUMP JUMPDEST PUSH32 0x4E487B7100000000000000000000000000000000000000000000000000000000 PUSH1 0x0 MSTORE PUSH1 0x22 PUSH1 0x4 MSTORE PUSH1 0x24 PUSH1 0x0 REVERT JUMPDEST PUSH1 0x0 PUSH1 0x2 DUP3 DIV SWAP1 POP PUSH1 0x1 DUP3 AND DUP1 PUSH2 0x85E JUMPI PUSH1 0x7F DUP3 AND SWAP2 POP JUMPDEST PUSH1 0x20 DUP3 LT DUP2 SUB PUSH2 0x871 JUMPI PUSH2 0x870 PUSH2 0x817 JUMP JUMPDEST JUMPDEST POP SWAP2 SWAP1 POP JUMP JUMPDEST PUSH1 0x0 DUP2 SWAP1 POP DUP2 PUSH1 0x0 MSTORE PUSH1 0x20 PUSH1 0x0 KECCAK256 SWAP1 POP SWAP2 SWAP1 POP JUMP JUMPDEST PUSH1 0x0 PUSH1 0x20 PUSH1 0x1F DUP4 ADD DIV SWAP1 POP SWAP2 SWAP1 POP JUMP JUMPDEST PUSH1 0x0 DUP3 DUP3 SHL SWAP1 POP SWAP3 SWAP2 POP POP JUMP JUMPDEST PUSH1 0x0 PUSH1 0x8 DUP4 MUL PUSH2 0x8D9 PUSH32 0xFFFFFFFFFFFFFFFFFFFFFFFFFFFFFFFFFFFFFFFFFFFFFFFFFFFFFFFFFFFFFFFF DUP3 PUSH2 0x89C JUMP JUMPDEST PUSH2 0x8E3 DUP7 DUP4 PUSH2 0x89C JUMP JUMPDEST SWAP6 POP DUP1 NOT DUP5 AND SWAP4 POP DUP1 DUP7 AND DUP5 OR SWAP3 POP POP POP SWAP4 SWAP3 POP POP POP JUMP JUMPDEST PUSH1 0x0 DUP2 SWAP1 POP SWAP2 SWAP1 POP JUMP JUMPDEST PUSH1 0x0 PUSH2 0x920 PUSH2 0x91B PUSH2 0x916 DUP5 PUSH2 0x3E9 JUMP JUMPDEST PUSH2 0x8FB JUMP JUMPDEST PUSH2 0x3E9 JUMP JUMPDEST SWAP1 POP SWAP2 SWAP1 POP JUMP JUMPDEST PUSH1 0x0 DUP2 SWAP1 POP SWAP2 SWAP1 POP JUMP JUMPDEST PUSH2 0x93A DUP4 PUSH2 0x905 JUMP JUMPDEST PUSH2 0x94E PUSH2 0x946 DUP3 PUSH2 0x927 JUMP JUMPDEST DUP5 DUP5 SLOAD PUSH2 0x8A9 JUMP JUMPDEST DUP3 SSTORE POP POP POP POP JUMP JUMPDEST PUSH1 0x0 SWAP1 JUMP JUMPDEST PUSH2 0x963 PUSH2 0x956 JUMP JUMPDEST PUSH2 0x96E DUP2 DUP5 DUP5 PUSH2 0x931 JUMP JUMPDEST POP POP POP JUMP JUMPDEST JUMPDEST DUP2 DUP2 LT ISZERO PUSH2 0x992 JUMPI PUSH2 0x987 PUSH1 0x0 DUP3 PUSH2 0x95B JUMP JUMPDEST PUSH1 0x1 DUP2 ADD SWAP1 POP PUSH2 0x974 JUMP JUMPDEST POP POP JUMP JUMPDEST PUSH1 0x1F DUP3 GT ISZERO PUSH2 0x9D7 JUMPI PUSH2 0x9A8 DUP2 PUSH2 0x877 JUMP JUMPDEST PUSH2 0x9B1 DUP5 PUSH2 0x88C JUMP JUMPDEST DUP2 ADD PUSH1 0x20 DUP6 LT ISZERO PUSH2 0x9C0 JUMPI DUP2 SWAP1 POP JUMPDEST PUSH2 0x9D4 PUSH2 0x9CC DUP6 PUSH2 0x88C JUMP JUMPDEST DUP4 ADD DUP3 PUSH2 0x973 JUMP JUMPDEST POP POP JUMPDEST POP POP POP JUMP JUMPDEST PUSH1 0x0 DUP3 DUP3 SHR SWAP1 POP SWAP3 SWAP2 POP POP JUMP JUMPDEST PUSH1 0x0 PUSH2 0x9FA PUSH1 0x0 NOT DUP5 PUSH1 0x8 MUL PUSH2 0x9DC JUMP JUMPDEST NOT DUP1 DUP4 AND SWAP2 POP POP SWAP3 SWAP2 POP POP JUMP JUMPDEST PUSH1 0x0 PUSH2 0xA13 DUP4 DUP4 PUSH2 0x9E9 JUMP JUMPDEST SWAP2 POP DUP3 PUSH1 0x2 MUL DUP3 OR SWAP1 POP SWAP3 SWAP2 POP POP JUMP JUMPDEST PUSH2 0xA2C DUP3 PUSH2 0x699 JUMP JUMPDEST PUSH8 0xFFFFFFFFFFFFFFFF DUP2 GT ISZERO PUSH2 0xA45 JUMPI PUSH2 0xA44 PUSH2 0x4AA JUMP JUMPDEST JUMPDEST PUSH2 0xA4F DUP3 SLOAD PUSH2 0x846 JUMP JUMPDEST PUSH2 0xA5A DUP3 DUP3 DUP6 PUSH2 0x996 JUMP JUMPDEST PUSH1 0x0 PUSH1 0x20 SWAP1 POP PUSH1 0x1F DUP4 GT PUSH1 0x1 DUP2 EQ PUSH2 0xA8D JUMPI PUSH1 0x0 DUP5 ISZERO PUSH2 0xA7B JUMPI DUP3 DUP8 ADD MLOAD SWAP1 POP JUMPDEST PUSH2 0xA85 DUP6 DUP3 PUSH2 0xA07 JUMP JUMPDEST DUP7 SSTORE POP PUSH2 0xAED JUMP JUMPDEST PUSH1 0x1F NOT DUP5 AND PUSH2 0xA9B DUP7 PUSH2 0x877 JUMP JUMPDEST PUSH1 0x0 JUMPDEST DUP3 DUP2 LT ISZERO PUSH2 0xAC3 JUMPI DUP5 DUP10 ADD MLOAD DUP3 SSTORE PUSH1 0x1 DUP3 ADD SWAP2 POP PUSH1 0x20 DUP6 ADD SWAP5 POP PUSH1 0x20 DUP2 ADD SWAP1 POP PUSH2 0xA9E JUMP JUMPDEST DUP7 DUP4 LT ISZERO PUSH2 0xAE0 JUMPI DUP5 DUP10 ADD MLOAD PUSH2 0xADC PUSH1 0x1F DUP10 AND DUP3 PUSH2 0x9E9 JUMP JUMPDEST DUP4 SSTORE POP JUMPDEST PUSH1 0x1 PUSH1 0x2 DUP9 MUL ADD DUP9 SSTORE POP POP POP JUMPDEST POP POP POP POP POP POP JUMP INVALID LOG2 PUSH5 0x6970667358 0x22 SLT KECCAK256 0x21 PUSH21 0x38078E73DD90BFEE09618C3F3D0038125B042E0719 SLOAD 0xAE PUSH22 0x7E305C30186D64736F6C634300081200330000000000 "
		},
		"gasEstimates": {
			"creation": {
				"codeDepositCost": "571800",
				"executionCost": "infinite",
				"totalCost": "infinite"
			},
			"external": {
				"addReferral(address,string)": "infinite",
				"github()": "infinite",
				"owner()": "2558",
				"referrals(uint256)": "infinite",
				"totalReferrals()": "2423"
			}
		},
		"methodIdentifiers": {
			"addReferral(address,string)": "4453511d",
			"github()": "9bc2c274",
			"owner()": "8da5cb5b",
			"referrals(uint256)": "80b7c92b",
			"totalReferrals()": "196f4914"
		}
	},
	"abi": [
		{
			"inputs": [],
			"stateMutability": "nonpayable",
			"type": "constructor"
		},
		{
			"inputs": [
				{
					"internalType": "address",
					"name": "_referralAddress",
					"type": "address"
				},
				{
					"internalType": "string",
					"name": "_referralString",
					"type": "string"
				}
			],
			"name": "addReferral",
			"outputs": [],
			"stateMutability": "nonpayable",
			"type": "function"
		},
		{
			"inputs": [],
			"name": "github",
			"outputs": [
				{
					"internalType": "string",
					"name": "",
					"type": "string"
				}
			],
			"stateMutability": "view",
			"type": "function"
		},
		{
			"inputs": [],
			"name": "owner",
			"outputs": [
				{
					"internalType": "address",
					"name": "",
					"type": "address"
				}
			],
			"stateMutability": "view",
			"type": "function"
		},
		{
			"inputs": [
				{
					"internalType": "uint256",
					"name": "",
					"type": "uint256"
				}
			],
			"name": "referrals",
			"outputs": [
				{
					"internalType": "address",
					"name": "referralAddress",
					"type": "address"
				},
				{
					"internalType": "string",
					"name": "referralString",
					"type": "string"
				}
			],
			"stateMutability": "view",
			"type": "function"
		},
		{
			"inputs": [],
			"name": "totalReferrals",
			"outputs": [
				{
					"internalType": "uint256",
					"name": "",
					"type": "uint256"
				}
			],
			"stateMutability": "view",
			"type": "function"
		}
	]
}